{
  "contractName": "ntt54_DEX",
  "abi": [
    {
      "inputs": [
        {
          "internalType": "bytes32",
          "name": "_quoteTokenID",
          "type": "bytes32"
        },
        {
          "internalType": "bytes8",
          "name": "_quoteTicker",
          "type": "bytes8"
        },
        {
          "internalType": "uint256",
          "name": "_quoteInitialSupply",
          "type": "uint256"
        },
        {
          "internalType": "address",
          "name": "_oracleAddress",
          "type": "address"
        },
        {
          "internalType": "uint256",
          "name": "_max_faucet_allowance",
          "type": "uint256"
        }
      ],
      "stateMutability": "nonpayable",
      "type": "constructor"
    },
    {
      "anonymous": false,
      "inputs": [
        {
          "indexed": false,
          "internalType": "address",
          "name": "to",
          "type": "address"
        },
        {
          "indexed": false,
          "internalType": "uint256",
          "name": "amount",
          "type": "uint256"
        },
        {
          "indexed": false,
          "internalType": "uint256",
          "name": "timestamp",
          "type": "uint256"
        }
      ],
      "name": "NewFaucetMint",
      "type": "event"
    },
    {
      "anonymous": false,
      "inputs": [
        {
          "indexed": false,
          "internalType": "uint256",
          "name": "id",
          "type": "uint256"
        },
        {
          "indexed": false,
          "internalType": "bytes32",
          "name": "frmTkn",
          "type": "bytes32"
        },
        {
          "indexed": false,
          "internalType": "bytes32",
          "name": "toTkn",
          "type": "bytes32"
        },
        {
          "indexed": false,
          "internalType": "uint256",
          "name": "amountIn",
          "type": "uint256"
        },
        {
          "indexed": false,
          "internalType": "uint256",
          "name": "amountOut",
          "type": "uint256"
        },
        {
          "indexed": false,
          "internalType": "uint256",
          "name": "price",
          "type": "uint256"
        },
        {
          "indexed": false,
          "internalType": "uint256",
          "name": "timestamp",
          "type": "uint256"
        }
      ],
      "name": "NewSwap",
      "type": "event"
    },
    {
      "anonymous": false,
      "inputs": [
        {
          "indexed": false,
          "internalType": "address",
          "name": "sender",
          "type": "address"
        },
        {
          "indexed": false,
          "internalType": "uint256",
          "name": "amount",
          "type": "uint256"
        }
      ],
      "name": "Received",
      "type": "event"
    },
    {
      "inputs": [],
      "name": "admin",
      "outputs": [
        {
          "internalType": "address",
          "name": "",
          "type": "address"
        }
      ],
      "stateMutability": "view",
      "type": "function",
      "constant": true
    },
    {
      "inputs": [
        {
          "internalType": "address",
          "name": "",
          "type": "address"
        }
      ],
      "name": "faucetMinted",
      "outputs": [
        {
          "internalType": "uint256",
          "name": "",
          "type": "uint256"
        }
      ],
      "stateMutability": "view",
      "type": "function",
      "constant": true
    },
    {
      "inputs": [],
      "name": "max_faucet_allowance",
      "outputs": [
        {
          "internalType": "uint256",
          "name": "",
          "type": "uint256"
        }
      ],
      "stateMutability": "view",
      "type": "function",
      "constant": true
    },
    {
      "inputs": [],
      "name": "oracleAddress",
      "outputs": [
        {
          "internalType": "address",
          "name": "",
          "type": "address"
        }
      ],
      "stateMutability": "view",
      "type": "function",
      "constant": true
    },
    {
      "inputs": [],
      "name": "quoteTokenID",
      "outputs": [
        {
          "internalType": "bytes32",
          "name": "",
          "type": "bytes32"
        }
      ],
      "stateMutability": "view",
      "type": "function",
      "constant": true
    },
    {
      "inputs": [],
      "name": "swapID",
      "outputs": [
        {
          "internalType": "uint256",
          "name": "",
          "type": "uint256"
        }
      ],
      "stateMutability": "view",
      "type": "function",
      "constant": true
    },
    {
      "inputs": [
        {
          "internalType": "uint256",
          "name": "",
          "type": "uint256"
        }
      ],
      "name": "tokenIDs",
      "outputs": [
        {
          "internalType": "bytes32",
          "name": "",
          "type": "bytes32"
        }
      ],
      "stateMutability": "view",
      "type": "function",
      "constant": true
    },
    {
      "inputs": [
        {
          "internalType": "bytes32",
          "name": "",
          "type": "bytes32"
        }
      ],
      "name": "tokens",
      "outputs": [
        {
          "internalType": "bytes32",
          "name": "tokenID",
          "type": "bytes32"
        },
        {
          "internalType": "bytes8",
          "name": "tokenTicker",
          "type": "bytes8"
        },
        {
          "internalType": "address",
          "name": "tokenAddress",
          "type": "address"
        }
      ],
      "stateMutability": "view",
      "type": "function",
      "constant": true
    },
    {
      "stateMutability": "payable",
      "type": "receive",
      "payable": true
    },
    {
      "inputs": [
        {
          "internalType": "address",
          "name": "newAdmin",
          "type": "address"
        }
      ],
      "name": "changeAdmin",
      "outputs": [],
      "stateMutability": "nonpayable",
      "type": "function"
    },
    {
      "inputs": [
        {
          "internalType": "bytes32",
          "name": "tID",
          "type": "bytes32"
        },
        {
          "internalType": "bytes8",
          "name": "tTicker",
          "type": "bytes8"
        },
        {
          "internalType": "address",
          "name": "tAddress",
          "type": "address"
        }
      ],
      "name": "addToken",
      "outputs": [],
      "stateMutability": "nonpayable",
      "type": "function"
    },
    {
      "inputs": [],
      "name": "getAllTokenIDstrings",
      "outputs": [
        {
          "internalType": "string[]",
          "name": "",
          "type": "string[]"
        }
      ],
      "stateMutability": "view",
      "type": "function",
      "constant": true
    },
    {
      "inputs": [],
      "name": "getAllTokenIDs",
      "outputs": [
        {
          "internalType": "bytes32[]",
          "name": "",
          "type": "bytes32[]"
        }
      ],
      "stateMutability": "view",
      "type": "function",
      "constant": true
    },
    {
      "inputs": [],
      "name": "getAllTokens",
      "outputs": [
        {
          "components": [
            {
              "internalType": "bytes32",
              "name": "tokenID",
              "type": "bytes32"
            },
            {
              "internalType": "bytes8",
              "name": "tokenTicker",
              "type": "bytes8"
            },
            {
              "internalType": "address",
              "name": "tokenAddress",
              "type": "address"
            }
          ],
          "internalType": "struct ntt54_DEX.Token[]",
          "name": "",
          "type": "tuple[]"
        }
      ],
      "stateMutability": "view",
      "type": "function",
      "constant": true
    },
    {
      "inputs": [
        {
          "internalType": "uint256",
          "name": "_amount",
          "type": "uint256"
        }
      ],
      "name": "faucetStable",
      "outputs": [],
      "stateMutability": "nonpayable",
      "type": "function"
    },
    {
      "inputs": [
        {
          "internalType": "address",
          "name": "from",
          "type": "address"
        },
        {
          "internalType": "bytes32[]",
          "name": "tID",
          "type": "bytes32[]"
        },
        {
          "internalType": "bytes8[]",
          "name": "tTicker",
          "type": "bytes8[]"
        },
        {
          "internalType": "address[]",
          "name": "tAddress",
          "type": "address[]"
        },
        {
          "internalType": "uint256[]",
          "name": "tSupply",
          "type": "uint256[]"
        }
      ],
      "name": "transferLiquidity",
      "outputs": [],
      "stateMutability": "nonpayable",
      "type": "function"
    },
    {
      "inputs": [
        {
          "internalType": "bytes32",
          "name": "toToken",
          "type": "bytes32"
        }
      ],
      "name": "getTokenStablePrice",
      "outputs": [
        {
          "internalType": "uint256",
          "name": "",
          "type": "uint256"
        }
      ],
      "stateMutability": "view",
      "type": "function",
      "constant": true
    },
    {
      "inputs": [
        {
          "internalType": "bytes32",
          "name": "toToken",
          "type": "bytes32"
        },
        {
          "internalType": "uint256",
          "name": "amount",
          "type": "uint256"
        }
      ],
      "name": "swapStableForToken",
      "outputs": [
        {
          "internalType": "uint256",
          "name": "",
          "type": "uint256"
        }
      ],
      "stateMutability": "nonpayable",
      "type": "function"
    },
    {
      "inputs": [
        {
          "internalType": "bytes32",
          "name": "fromToken",
          "type": "bytes32"
        },
        {
          "internalType": "uint256",
          "name": "amount",
          "type": "uint256"
        }
      ],
      "name": "swapTokenForStable",
      "outputs": [
        {
          "internalType": "uint256",
          "name": "",
          "type": "uint256"
        }
      ],
      "stateMutability": "nonpayable",
      "type": "function"
    },
    {
      "inputs": [],
      "name": "getContractBalance",
      "outputs": [
        {
          "internalType": "uint256",
          "name": "",
          "type": "uint256"
        }
      ],
      "stateMutability": "view",
      "type": "function",
      "constant": true
    },
    {
      "inputs": [],
      "name": "withdrawContractBalance",
      "outputs": [],
      "stateMutability": "nonpayable",
      "type": "function"
    }
  ],
  "bytecode": "0x60806040523480156200001157600080fd5b50604051620052a7380380620052a7833981810160405281019062000037919062000396565b336000806101000a81548173ffffffffffffffffffffffffffffffffffffffff021916908373ffffffffffffffffffffffffffffffffffffffff16021790555081600160006101000a81548173ffffffffffffffffffffffffffffffffffffffff021916908373ffffffffffffffffffffffffffffffffffffffff160217905550670de0b6b3a764000081620000ce9190620005cb565b600481905550600085604051602001620000e9919062000508565b604051602081830303815290604052856040516020016200010b919062000525565b604051602081830303815290604052670de0b6b3a764000086620001309190620005cb565b6040516200013e906200032c565b6200014c9392919062000542565b604051809103906000f08015801562000169573d6000803e3d6000fd5b50905085600281905550620001868686836200019260201b60201c565b50505050505062000792565b60008054906101000a900473ffffffffffffffffffffffffffffffffffffffff1673ffffffffffffffffffffffffffffffffffffffff163373ffffffffffffffffffffffffffffffffffffffff161462000223576040517f08c379a00000000000000000000000000000000000000000000000000000000081526004016200021a906200058d565b60405180910390fd5b60405180606001604052808481526020018377ffffffffffffffffffffffffffffffffffffffffffffffff191681526020018273ffffffffffffffffffffffffffffffffffffffff16815250600560008581526020019081526020016000206000820151816000015560208201518160010160006101000a81548167ffffffffffffffff021916908360c01c021790555060408201518160010160086101000a81548173ffffffffffffffffffffffffffffffffffffffff021916908373ffffffffffffffffffffffffffffffffffffffff1602179055509050506006839080600181540180825580915050600190039060005260206000200160009091909190915055505050565b612255806200305283390190565b6000815190506200034b816200072a565b92915050565b600081519050620003628162000744565b92915050565b60008151905062000379816200075e565b92915050565b600081519050620003908162000778565b92915050565b600080600080600060a08688031215620003af57600080fd5b6000620003bf8882890162000351565b9550506020620003d28882890162000368565b9450506040620003e5888289016200037f565b9350506060620003f8888289016200033a565b92505060806200040b888289016200037f565b9150509295509295909350565b6200042d620004278262000640565b620006d6565b82525050565b6200044862000442826200064a565b620006e0565b82525050565b60006200045b82620005af565b620004678185620005ba565b935062000479818560208601620006a0565b620004848162000719565b840191505092915050565b60006200049e603483620005ba565b91507f6f6e6c79207468652061646d696e6973747261746f7220697320616c6c6f776560008301527f6420746869732066756e6374696f6e616c6974790000000000000000000000006020830152604082019050919050565b620005028162000696565b82525050565b600062000516828462000418565b60208201915081905092915050565b600062000533828462000433565b60088201915081905092915050565b600060608201905081810360008301526200055e81866200044e565b905081810360208301526200057481856200044e565b9050620005856040830184620004f7565b949350505050565b60006020820190508181036000830152620005a8816200048f565b9050919050565b600081519050919050565b600082825260208201905092915050565b6000620005d88262000696565b9150620005e58362000696565b9250817fffffffffffffffffffffffffffffffffffffffffffffffffffffffffffffffff0483118215151615620006215762000620620006ea565b5b828202905092915050565b6000620006398262000676565b9050919050565b6000819050919050565b60007fffffffffffffffff00000000000000000000000000000000000000000000000082169050919050565b600073ffffffffffffffffffffffffffffffffffffffff82169050919050565b6000819050919050565b60005b83811015620006c0578082015181840152602081019050620006a3565b83811115620006d0576000848401525b50505050565b6000819050919050565b6000819050919050565b7f4e487b7100000000000000000000000000000000000000000000000000000000600052601160045260246000fd5b6000601f19601f8301169050919050565b62000735816200062c565b81146200074157600080fd5b50565b6200074f8162000640565b81146200075b57600080fd5b50565b62000769816200064a565b81146200077557600080fd5b50565b620007838162000696565b81146200078f57600080fd5b50565b6128b080620007a26000396000f3fe6080604052600436106101235760003560e01c8063a183bb7e116100a0578063bfab3db911610064578063bfab3db914610441578063dfa0d84f14610458578063e3353fc014610483578063f851a440146104c0578063fc1104e8146104eb57610163565b8063a183bb7e14610348578063a574bc4914610373578063a687a26c146103b0578063a89ae4ba146103d9578063b88faa121461040457610163565b80636d28d349116100e75780636d28d349146102615780636f9fb98a1461028c5780637cab9f8e146102b75780638f283970146102e0578063904194a31461030957610163565b806305f741dd1461016857806306f356dc146101915780631c36c9f8146101ce5780632a5c792a1461020b578063684a10b31461023657610163565b36610163577f88a5966d370b9919b20f3e2c13ff65706f196a4e32cc2c12bf57088f885258743334604051610159929190612285565b60405180910390a1005b600080fd5b34801561017457600080fd5b5061018f600480360381019061018a9190611b96565b610516565b005b34801561019d57600080fd5b506101b860048036038101906101b39190611e0d565b610749565b6040516101c5919061234b565b60405180910390f35b3480156101da57600080fd5b506101f560048036038101906101f09190611da8565b61076d565b604051610202919061241d565b60405180910390f35b34801561021757600080fd5b50610220610a8c565b60405161022d9190612329565b60405180910390f35b34801561024257600080fd5b5061024b610c8f565b60405161025891906122e5565b60405180910390f35b34801561026d57600080fd5b50610276610ce7565b604051610283919061234b565b60405180910390f35b34801561029857600080fd5b506102a1610ced565b6040516102ae919061241d565b60405180910390f35b3480156102c357600080fd5b506102de60048036038101906102d99190611d59565b610cf5565b005b3480156102ec57600080fd5b5061030760048036038101906103029190611b6d565b610e8c565b005b34801561031557600080fd5b50610330600480360381019061032b9190611d30565b610f5d565b60405161033f93929190612366565b60405180910390f35b34801561035457600080fd5b5061035d610fb4565b60405161036a919061241d565b60405180910390f35b34801561037f57600080fd5b5061039a60048036038101906103959190611d30565b610fba565b6040516103a7919061241d565b60405180910390f35b3480156103bc57600080fd5b506103d760048036038101906103d29190611e0d565b61107e565b005b3480156103e557600080fd5b506103ee611398565b6040516103fb9190612233565b60405180910390f35b34801561041057600080fd5b5061042b60048036038101906104269190611da8565b6113be565b604051610438919061241d565b60405180910390f35b34801561044d57600080fd5b506104566116dd565b005b34801561046457600080fd5b5061046d6117b4565b60405161047a919061241d565b60405180910390f35b34801561048f57600080fd5b506104aa60048036038101906104a59190611b6d565b6117ba565b6040516104b7919061241d565b60405180910390f35b3480156104cc57600080fd5b506104d56117d2565b6040516104e29190612233565b60405180910390f35b3480156104f757600080fd5b506105006117f6565b60405161050d9190612307565b60405180910390f35b60005b8888905081101561073d57600085858381811061055f577f4e487b7100000000000000000000000000000000000000000000000000000000600052603260045260246000fd5b90506020020160208101906105749190611b6d565b90508073ffffffffffffffffffffffffffffffffffffffff166323b872dd8c308787878181106105cd577f4e487b7100000000000000000000000000000000000000000000000000000000600052603260045260246000fd5b905060200201356040518463ffffffff1660e01b81526004016105f29392919061224e565b602060405180830381600087803b15801561060c57600080fd5b505af1158015610620573d6000803e3d6000fd5b505050506040513d601f19601f820116820180604052508101906106449190611c7e565b506107298a8a84818110610681577f4e487b7100000000000000000000000000000000000000000000000000000000600052603260045260246000fd5b905060200201358989858181106106c1577f4e487b7100000000000000000000000000000000000000000000000000000000600052603260045260246000fd5b90506020020160208101906106d69190611de4565b88888681811061070f577f4e487b7100000000000000000000000000000000000000000000000000000000600052603260045260246000fd5b90506020020160208101906107249190611b6d565b610cf5565b50808061073590612745565b915050610519565b50505050505050505050565b6006818154811061075957600080fd5b906000526020600020016000915090505481565b600082600073ffffffffffffffffffffffffffffffffffffffff166005600083815260200190815260200160002060010160089054906101000a900473ffffffffffffffffffffffffffffffffffffffff1673ffffffffffffffffffffffffffffffffffffffff161415610816576040517f08c379a000000000000000000000000000000000000000000000000000000000815260040161080d9061239d565b60405180910390fd5b60006005600086815260200190815260200160002060010160089054906101000a900473ffffffffffffffffffffffffffffffffffffffff1690508073ffffffffffffffffffffffffffffffffffffffff166323b872dd3330876040518463ffffffff1660e01b815260040161088e9392919061224e565b602060405180830381600087803b1580156108a857600080fd5b505af11580156108bc573d6000803e3d6000fd5b505050506040513d601f19601f820116820180604052508101906108e09190611c7e565b50600060056000600254815260200190815260200160002060010160089054906101000a900473ffffffffffffffffffffffffffffffffffffffff169050600061092987610fba565b90506000811161096e576040517f08c379a0000000000000000000000000000000000000000000000000000000008152600401610965906123fd565b60405180910390fd5b6000670de0b6b3a764000082886109859190612606565b61098f91906125d5565b90508273ffffffffffffffffffffffffffffffffffffffff1663a9059cbb33836040518363ffffffff1660e01b81526004016109cc929190612285565b602060405180830381600087803b1580156109e657600080fd5b505af11580156109fa573d6000803e3d6000fd5b505050506040513d601f19601f82011682018060405250810190610a1e9190611c7e565b5060036000815480929190610a3290612745565b91905055507f387989c83c59dc56ed203412b746828216ff415964972422234ca2de84287c52600354896002548a858742604051610a769796959493929190612438565b60405180910390a1809550505050505092915050565b6060600060068054905067ffffffffffffffff811115610ad5577f4e487b7100000000000000000000000000000000000000000000000000000000600052604160045260246000fd5b604051908082528060200260200182016040528015610b0e57816020015b610afb611948565b815260200190600190039081610af35790505b50905060005b600680549050811015610c87576005600060068381548110610b5f577f4e487b7100000000000000000000000000000000000000000000000000000000600052603260045260246000fd5b90600052602060002001548152602001908152602001600020604051806060016040529081600082015481526020016001820160009054906101000a900460c01b77ffffffffffffffffffffffffffffffffffffffffffffffff191677ffffffffffffffffffffffffffffffffffffffffffffffff191681526020016001820160089054906101000a900473ffffffffffffffffffffffffffffffffffffffff1673ffffffffffffffffffffffffffffffffffffffff1673ffffffffffffffffffffffffffffffffffffffff1681525050828281518110610c69577f4e487b7100000000000000000000000000000000000000000000000000000000600052603260045260246000fd5b60200260200101819052508080610c7f90612745565b915050610b14565b508091505090565b60606006805480602002602001604051908101604052809291908181526020018280548015610cdd57602002820191906000526020600020905b815481526020019060010190808311610cc9575b5050505050905090565b60025481565b600047905090565b60008054906101000a900473ffffffffffffffffffffffffffffffffffffffff1673ffffffffffffffffffffffffffffffffffffffff163373ffffffffffffffffffffffffffffffffffffffff1614610d83576040517f08c379a0000000000000000000000000000000000000000000000000000000008152600401610d7a906123dd565b60405180910390fd5b60405180606001604052808481526020018377ffffffffffffffffffffffffffffffffffffffffffffffff191681526020018273ffffffffffffffffffffffffffffffffffffffff16815250600560008581526020019081526020016000206000820151816000015560208201518160010160006101000a81548167ffffffffffffffff021916908360c01c021790555060408201518160010160086101000a81548173ffffffffffffffffffffffffffffffffffffffff021916908373ffffffffffffffffffffffffffffffffffffffff1602179055509050506006839080600181540180825580915050600190039060005260206000200160009091909190915055505050565b60008054906101000a900473ffffffffffffffffffffffffffffffffffffffff1673ffffffffffffffffffffffffffffffffffffffff163373ffffffffffffffffffffffffffffffffffffffff1614610f1a576040517f08c379a0000000000000000000000000000000000000000000000000000000008152600401610f11906123dd565b60405180910390fd5b806000806101000a81548173ffffffffffffffffffffffffffffffffffffffff021916908373ffffffffffffffffffffffffffffffffffffffff16021790555050565b60056020528060005260406000206000915090508060000154908060010160009054906101000a900460c01b908060010160089054906101000a900473ffffffffffffffffffffffffffffffffffffffff16905083565b60045481565b600080600160009054906101000a900473ffffffffffffffffffffffffffffffffffffffff16905060008173ffffffffffffffffffffffffffffffffffffffff166354f6127f856040518263ffffffff1660e01b815260040161101d919061234b565b60c06040518083038186803b15801561103557600080fd5b505afa158015611049573d6000803e3d6000fd5b505050506040513d601f19601f8201168201806040525081019061106d9190611ca7565b505093505050508092505050919050565b600254600073ffffffffffffffffffffffffffffffffffffffff166005600083815260200190815260200160002060010160089054906101000a900473ffffffffffffffffffffffffffffffffffffffff1673ffffffffffffffffffffffffffffffffffffffff161415611127576040517f08c379a000000000000000000000000000000000000000000000000000000000815260040161111e9061239d565b60405180910390fd5b6000670de0b6b3a76400008361113d9190612606565b9050600454600760003373ffffffffffffffffffffffffffffffffffffffff1673ffffffffffffffffffffffffffffffffffffffff1681526020019081526020016000205410801561119157506004548111155b6111d0576040517f08c379a00000000000000000000000000000000000000000000000000000000081526004016111c7906123bd565b60405180910390fd5b6000600760003373ffffffffffffffffffffffffffffffffffffffff1673ffffffffffffffffffffffffffffffffffffffff1681526020019081526020016000205460045461121f9190612660565b905060008282116112305781611232565b825b905080600760003373ffffffffffffffffffffffffffffffffffffffff1673ffffffffffffffffffffffffffffffffffffffff1681526020019081526020016000206000828254611283919061257f565b92505081905550600060056000600254815260200190815260200160002060010160089054906101000a900473ffffffffffffffffffffffffffffffffffffffff1690508073ffffffffffffffffffffffffffffffffffffffff1663a9059cbb33846040518363ffffffff1660e01b8152600401611302929190612285565b602060405180830381600087803b15801561131c57600080fd5b505af1158015611330573d6000803e3d6000fd5b505050506040513d601f19601f820116820180604052508101906113549190611c7e565b507fc3bb353928c7d262b41ab55aac6989d2b1a3076e5947410e69445fcc9999be3d338342604051611388939291906122ae565b60405180910390a1505050505050565b600160009054906101000a900473ffffffffffffffffffffffffffffffffffffffff1681565b600082600073ffffffffffffffffffffffffffffffffffffffff166005600083815260200190815260200160002060010160089054906101000a900473ffffffffffffffffffffffffffffffffffffffff1673ffffffffffffffffffffffffffffffffffffffff161415611467576040517f08c379a000000000000000000000000000000000000000000000000000000000815260040161145e9061239d565b60405180910390fd5b600060056000600254815260200190815260200160002060010160089054906101000a900473ffffffffffffffffffffffffffffffffffffffff1690508073ffffffffffffffffffffffffffffffffffffffff166323b872dd3330876040518463ffffffff1660e01b81526004016114e19392919061224e565b602060405180830381600087803b1580156114fb57600080fd5b505af115801561150f573d6000803e3d6000fd5b505050506040513d601f19601f820116820180604052508101906115339190611c7e565b5060006005600087815260200190815260200160002060010160089054906101000a900473ffffffffffffffffffffffffffffffffffffffff169050600061157a87610fba565b9050600081116115bf576040517f08c379a00000000000000000000000000000000000000000000000000000000081526004016115b6906123fd565b60405180910390fd5b600081670de0b6b3a7640000886115d69190612606565b6115e091906125d5565b90508273ffffffffffffffffffffffffffffffffffffffff1663a9059cbb33836040518363ffffffff1660e01b815260040161161d929190612285565b602060405180830381600087803b15801561163757600080fd5b505af115801561164b573d6000803e3d6000fd5b505050506040513d601f19601f8201168201806040525081019061166f9190611c7e565b506003600081548092919061168390612745565b91905055507f387989c83c59dc56ed203412b746828216ff415964972422234ca2de84287c526003546002548a8a8587426040516116c79796959493929190612438565b60405180910390a1809550505050505092915050565b60008054906101000a900473ffffffffffffffffffffffffffffffffffffffff1673ffffffffffffffffffffffffffffffffffffffff163373ffffffffffffffffffffffffffffffffffffffff161461176b576040517f08c379a0000000000000000000000000000000000000000000000000000000008152600401611762906123dd565b60405180910390fd5b3373ffffffffffffffffffffffffffffffffffffffff166108fc479081150290604051600060405180830381858888f193505050501580156117b1573d6000803e3d6000fd5b50565b60035481565b60076020528060005260406000206000915090505481565b60008054906101000a900473ffffffffffffffffffffffffffffffffffffffff1681565b6060600060068054905067ffffffffffffffff81111561183f577f4e487b7100000000000000000000000000000000000000000000000000000000600052604160045260246000fd5b60405190808252806020026020018201604052801561187257816020015b606081526020019060019003908161185d5790505b50905060005b60068054905081101561194057600681815481106118bf577f4e487b7100000000000000000000000000000000000000000000000000000000600052603260045260246000fd5b90600052602060002001546040516020016118da9190612218565b604051602081830303815290604052828281518110611922577f4e487b7100000000000000000000000000000000000000000000000000000000600052603260045260246000fd5b6020026020010181905250808061193890612745565b915050611878565b508091505090565b604051806060016040528060008019168152602001600077ffffffffffffffffffffffffffffffffffffffffffffffff19168152602001600073ffffffffffffffffffffffffffffffffffffffff1681525090565b6000813590506119ac81612807565b92915050565b6000815190506119c181612807565b92915050565b60008083601f8401126119d957600080fd5b8235905067ffffffffffffffff8111156119f257600080fd5b602083019150836020820283011115611a0a57600080fd5b9250929050565b60008083601f840112611a2357600080fd5b8235905067ffffffffffffffff811115611a3c57600080fd5b602083019150836020820283011115611a5457600080fd5b9250929050565b60008083601f840112611a6d57600080fd5b8235905067ffffffffffffffff811115611a8657600080fd5b602083019150836020820283011115611a9e57600080fd5b9250929050565b60008083601f840112611ab757600080fd5b8235905067ffffffffffffffff811115611ad057600080fd5b602083019150836020820283011115611ae857600080fd5b9250929050565b600081519050611afe8161281e565b92915050565b600081359050611b1381612835565b92915050565b600081359050611b288161284c565b92915050565b600081519050611b3d8161284c565b92915050565b600081359050611b5281612863565b92915050565b600081519050611b6781612863565b92915050565b600060208284031215611b7f57600080fd5b6000611b8d8482850161199d565b91505092915050565b600080600080600080600080600060a08a8c031215611bb457600080fd5b6000611bc28c828d0161199d565b99505060208a013567ffffffffffffffff811115611bdf57600080fd5b611beb8c828d01611a11565b985098505060408a013567ffffffffffffffff811115611c0a57600080fd5b611c168c828d01611a5b565b965096505060608a013567ffffffffffffffff811115611c3557600080fd5b611c418c828d016119c7565b945094505060808a013567ffffffffffffffff811115611c6057600080fd5b611c6c8c828d01611aa5565b92509250509295985092959850929598565b600060208284031215611c9057600080fd5b6000611c9e84828501611aef565b91505092915050565b60008060008060008060c08789031215611cc057600080fd5b6000611cce89828a01611aef565b9650506020611cdf89828a01611b2e565b9550506040611cf089828a01611b58565b9450506060611d0189828a01611b58565b9350506080611d1289828a01611b58565b92505060a0611d2389828a016119b2565b9150509295509295509295565b600060208284031215611d4257600080fd5b6000611d5084828501611b04565b91505092915050565b600080600060608486031215611d6e57600080fd5b6000611d7c86828701611b04565b9350506020611d8d86828701611b19565b9250506040611d9e8682870161199d565b9150509250925092565b60008060408385031215611dbb57600080fd5b6000611dc985828601611b04565b9250506020611dda85828601611b43565b9150509250929050565b600060208284031215611df657600080fd5b6000611e0484828501611b19565b91505092915050565b600060208284031215611e1f57600080fd5b6000611e2d84828501611b43565b91505092915050565b6000611e428383611fc9565b60208301905092915050565b6000611e5a838361201c565b905092915050565b6000611e6e83836121c7565b60608301905092915050565b611e8381612694565b82525050565b611e9281612694565b82525050565b6000611ea3826124d7565b611ead818561252a565b9350611eb8836124a7565b8060005b83811015611ee9578151611ed08882611e36565b9750611edb83612503565b925050600181019050611ebc565b5085935050505092915050565b6000611f01826124e2565b611f0b818561253b565b935083602082028501611f1d856124b7565b8060005b85811015611f595784840389528151611f3a8582611e4e565b9450611f4583612510565b925060208a01995050600181019050611f21565b50829750879550505050505092915050565b6000611f76826124ed565b611f80818561254c565b9350611f8b836124c7565b8060005b83811015611fbc578151611fa38882611e62565b9750611fae8361251d565b925050600181019050611f8f565b5085935050505092915050565b611fd2816126b2565b82525050565b611fe1816126b2565b82525050565b611ff8611ff3826126b2565b61278e565b82525050565b612007816126bc565b82525050565b612016816126bc565b82525050565b6000612027826124f8565b612031818561255d565b9350612041818560208601612712565b61204a816127f6565b840191505092915050565b600061206260178361256e565b91507f746f6b656e20494420646f6573206e6f742065786973740000000000000000006000830152602082019050919050565b60006120a2602b8361256e565b91507f6163636f756e7420686173206d696e746564206d6178696d756d207065726d6960008301527f7474656420737461626c650000000000000000000000000000000000000000006020830152604082019050919050565b600061210860348361256e565b91507f6f6e6c79207468652061646d696e6973747261746f7220697320616c6c6f776560008301527f6420746869732066756e6374696f6e616c6974790000000000000000000000006020830152604082019050919050565b600061216e602b8361256e565b91507f546f6b656e537461626c6520707269636520697320302e546f6b656e20646f6560008301527f73206e6f742065786973740000000000000000000000000000000000000000006020830152604082019050919050565b6060820160008201516121dd6000850182611fc9565b5060208201516121f06020850182611ffe565b5060408201516122036040850182611e7a565b50505050565b61221281612708565b82525050565b60006122248284611fe7565b60208201915081905092915050565b60006020820190506122486000830184611e89565b92915050565b60006060820190506122636000830186611e89565b6122706020830185611e89565b61227d6040830184612209565b949350505050565b600060408201905061229a6000830185611e89565b6122a76020830184612209565b9392505050565b60006060820190506122c36000830186611e89565b6122d06020830185612209565b6122dd6040830184612209565b949350505050565b600060208201905081810360008301526122ff8184611e98565b905092915050565b600060208201905081810360008301526123218184611ef6565b905092915050565b600060208201905081810360008301526123438184611f6b565b905092915050565b60006020820190506123606000830184611fd8565b92915050565b600060608201905061237b6000830186611fd8565b612388602083018561200d565b6123956040830184611e89565b949350505050565b600060208201905081810360008301526123b681612055565b9050919050565b600060208201905081810360008301526123d681612095565b9050919050565b600060208201905081810360008301526123f6816120fb565b9050919050565b6000602082019050818103600083015261241681612161565b9050919050565b60006020820190506124326000830184612209565b92915050565b600060e08201905061244d600083018a612209565b61245a6020830189611fd8565b6124676040830188611fd8565b6124746060830187612209565b6124816080830186612209565b61248e60a0830185612209565b61249b60c0830184612209565b98975050505050505050565b6000819050602082019050919050565b6000819050602082019050919050565b6000819050602082019050919050565b600081519050919050565b600081519050919050565b600081519050919050565b600081519050919050565b6000602082019050919050565b6000602082019050919050565b6000602082019050919050565b600082825260208201905092915050565b600082825260208201905092915050565b600082825260208201905092915050565b600082825260208201905092915050565b600082825260208201905092915050565b600061258a82612708565b915061259583612708565b9250827fffffffffffffffffffffffffffffffffffffffffffffffffffffffffffffffff038211156125ca576125c9612798565b5b828201905092915050565b60006125e082612708565b91506125eb83612708565b9250826125fb576125fa6127c7565b5b828204905092915050565b600061261182612708565b915061261c83612708565b9250817fffffffffffffffffffffffffffffffffffffffffffffffffffffffffffffffff048311821515161561265557612654612798565b5b828202905092915050565b600061266b82612708565b915061267683612708565b92508282101561268957612688612798565b5b828203905092915050565b600061269f826126e8565b9050919050565b60008115159050919050565b6000819050919050565b60007fffffffffffffffff00000000000000000000000000000000000000000000000082169050919050565b600073ffffffffffffffffffffffffffffffffffffffff82169050919050565b6000819050919050565b60005b83811015612730578082015181840152602081019050612715565b8381111561273f576000848401525b50505050565b600061275082612708565b91507fffffffffffffffffffffffffffffffffffffffffffffffffffffffffffffffff82141561278357612782612798565b5b600182019050919050565b6000819050919050565b7f4e487b7100000000000000000000000000000000000000000000000000000000600052601160045260246000fd5b7f4e487b7100000000000000000000000000000000000000000000000000000000600052601260045260246000fd5b6000601f19601f8301169050919050565b61281081612694565b811461281b57600080fd5b50565b612827816126a6565b811461283257600080fd5b50565b61283e816126b2565b811461284957600080fd5b50565b612855816126bc565b811461286057600080fd5b50565b61286c81612708565b811461287757600080fd5b5056fea2646970667358221220c06fcf5544fe9b29dfbabaec6844dbc2d1f212e9b1788812587966b4a60db91964736f6c6343000800003360806040523480156200001157600080fd5b50604051620022553803806200225583398181016040528101906200003791906200038f565b828281600390805190602001906200005192919062000256565b5080600490805190602001906200006a92919062000256565b50505033600560006101000a81548173ffffffffffffffffffffffffffffffffffffffff021916908373ffffffffffffffffffffffffffffffffffffffff16021790555060008114620000ca57620000c93382620000d360201b60201c565b5b5050506200069b565b600073ffffffffffffffffffffffffffffffffffffffff168273ffffffffffffffffffffffffffffffffffffffff16141562000146576040517f08c379a00000000000000000000000000000000000000000000000000000000081526004016200013d906200046a565b60405180910390fd5b6200015a600083836200024c60201b60201c565b80600260008282546200016e919062000521565b92505081905550806000808473ffffffffffffffffffffffffffffffffffffffff1673ffffffffffffffffffffffffffffffffffffffff1681526020019081526020016000206000828254620001c5919062000521565b925050819055508173ffffffffffffffffffffffffffffffffffffffff16600073ffffffffffffffffffffffffffffffffffffffff167fddf252ad1be2c89b69c2b068fc378daa952ba7f163c4a11628f55a4df523b3ef836040516200022c91906200048c565b60405180910390a362000248600083836200025160201b60201c565b5050565b505050565b505050565b8280546200026490620005be565b90600052602060002090601f016020900481019282620002885760008555620002d4565b82601f10620002a357805160ff1916838001178555620002d4565b82800160010185558215620002d4579182015b82811115620002d3578251825591602001919060010190620002b6565b5b509050620002e39190620002e7565b5090565b5b8082111562000302576000816000905550600101620002e8565b5090565b60006200031d6200031784620004dd565b620004a9565b9050828152602081018484840111156200033657600080fd5b6200034384828562000588565b509392505050565b600082601f8301126200035d57600080fd5b81516200036f84826020860162000306565b91505092915050565b600081519050620003898162000681565b92915050565b600080600060608486031215620003a557600080fd5b600084015167ffffffffffffffff811115620003c057600080fd5b620003ce868287016200034b565b935050602084015167ffffffffffffffff811115620003ec57600080fd5b620003fa868287016200034b565b92505060406200040d8682870162000378565b9150509250925092565b600062000426601f8362000510565b91507f45524332303a206d696e7420746f20746865207a65726f2061646472657373006000830152602082019050919050565b62000464816200057e565b82525050565b60006020820190508181036000830152620004858162000417565b9050919050565b6000602082019050620004a3600083018462000459565b92915050565b6000604051905081810181811067ffffffffffffffff82111715620004d357620004d262000652565b5b8060405250919050565b600067ffffffffffffffff821115620004fb57620004fa62000652565b5b601f19601f8301169050602081019050919050565b600082825260208201905092915050565b60006200052e826200057e565b91506200053b836200057e565b9250827fffffffffffffffffffffffffffffffffffffffffffffffffffffffffffffffff03821115620005735762000572620005f4565b5b828201905092915050565b6000819050919050565b60005b83811015620005a85780820151818401526020810190506200058b565b83811115620005b8576000848401525b50505050565b60006002820490506001821680620005d757607f821691505b60208210811415620005ee57620005ed62000623565b5b50919050565b7f4e487b7100000000000000000000000000000000000000000000000000000000600052601160045260246000fd5b7f4e487b7100000000000000000000000000000000000000000000000000000000600052602260045260246000fd5b7f4e487b7100000000000000000000000000000000000000000000000000000000600052604160045260246000fd5b6200068c816200057e565b81146200069857600080fd5b50565b611baa80620006ab6000396000f3fe608060405234801561001057600080fd5b50600436106100f55760003560e01c806342966c6811610097578063a457c2d711610066578063a457c2d714610286578063a9059cbb146102b6578063dd62ed3e146102e6578063f851a44014610316576100f5565b806342966c681461020057806370a082311461021c5780638f2839701461024c57806395d89b4114610268576100f5565b806323b872dd116100d357806323b872dd14610166578063313ce5671461019657806339509351146101b457806340c10f19146101e4576100f5565b806306fdde03146100fa578063095ea7b31461011857806318160ddd14610148575b600080fd5b610102610334565b60405161010f91906117bf565b60405180910390f35b610132600480360381019061012d9190611299565b6103c6565b60405161013f91906117a4565b60405180910390f35b6101506103e9565b60405161015d9190611941565b60405180910390f35b610180600480360381019061017b919061124a565b6103f3565b60405161018d91906117a4565b60405180910390f35b61019e610422565b6040516101ab919061195c565b60405180910390f35b6101ce60048036038101906101c99190611299565b61042b565b6040516101db91906117a4565b60405180910390f35b6101fe60048036038101906101f99190611299565b6104d5565b005b61021a600480360381019061021591906112d5565b610573565b005b610236600480360381019061023191906111e5565b610632565b6040516102439190611941565b60405180910390f35b610266600480360381019061026191906111e5565b61067a565b005b61027061074e565b60405161027d91906117bf565b60405180910390f35b6102a0600480360381019061029b9190611299565b6107e0565b6040516102ad91906117a4565b60405180910390f35b6102d060048036038101906102cb9190611299565b6108ca565b6040516102dd91906117a4565b60405180910390f35b61030060048036038101906102fb919061120e565b6108ed565b60405161030d9190611941565b60405180910390f35b61031e610974565b60405161032b9190611789565b60405180910390f35b60606003805461034390611aa5565b80601f016020809104026020016040519081016040528092919081815260200182805461036f90611aa5565b80156103bc5780601f10610391576101008083540402835291602001916103bc565b820191906000526020600020905b81548152906001019060200180831161039f57829003601f168201915b5050505050905090565b6000806103d161099a565b90506103de8185856109a2565b600191505092915050565b6000600254905090565b6000806103fe61099a565b905061040b858285610b6d565b610416858585610bf9565b60019150509392505050565b60006012905090565b60008061043661099a565b90506104ca818585600160008673ffffffffffffffffffffffffffffffffffffffff1673ffffffffffffffffffffffffffffffffffffffff16815260200190815260200160002060008973ffffffffffffffffffffffffffffffffffffffff1673ffffffffffffffffffffffffffffffffffffffff168152602001908152602001600020546104c59190611993565b6109a2565b600191505092915050565b600560009054906101000a900473ffffffffffffffffffffffffffffffffffffffff1673ffffffffffffffffffffffffffffffffffffffff163373ffffffffffffffffffffffffffffffffffffffff1614610565576040517f08c379a000000000000000000000000000000000000000000000000000000000815260040161055c90611801565b60405180910390fd5b61056f8282610e7a565b5050565b600560009054906101000a900473ffffffffffffffffffffffffffffffffffffffff1673ffffffffffffffffffffffffffffffffffffffff163373ffffffffffffffffffffffffffffffffffffffff1614610603576040517f08c379a00000000000000000000000000000000000000000000000000000000081526004016105fa90611801565b60405180910390fd5b61062f600560009054906101000a900473ffffffffffffffffffffffffffffffffffffffff1682610fda565b50565b60008060008373ffffffffffffffffffffffffffffffffffffffff1673ffffffffffffffffffffffffffffffffffffffff168152602001908152602001600020549050919050565b600560009054906101000a900473ffffffffffffffffffffffffffffffffffffffff1673ffffffffffffffffffffffffffffffffffffffff163373ffffffffffffffffffffffffffffffffffffffff161461070a576040517f08c379a000000000000000000000000000000000000000000000000000000000815260040161070190611801565b60405180910390fd5b80600560006101000a81548173ffffffffffffffffffffffffffffffffffffffff021916908373ffffffffffffffffffffffffffffffffffffffff16021790555050565b60606004805461075d90611aa5565b80601f016020809104026020016040519081016040528092919081815260200182805461078990611aa5565b80156107d65780601f106107ab576101008083540402835291602001916107d6565b820191906000526020600020905b8154815290600101906020018083116107b957829003601f168201915b5050505050905090565b6000806107eb61099a565b90506000600160008373ffffffffffffffffffffffffffffffffffffffff1673ffffffffffffffffffffffffffffffffffffffff16815260200190815260200160002060008673ffffffffffffffffffffffffffffffffffffffff1673ffffffffffffffffffffffffffffffffffffffff168152602001908152602001600020549050838110156108b1576040517f08c379a00000000000000000000000000000000000000000000000000000000081526004016108a890611901565b60405180910390fd5b6108be82868684036109a2565b60019250505092915050565b6000806108d561099a565b90506108e2818585610bf9565b600191505092915050565b6000600160008473ffffffffffffffffffffffffffffffffffffffff1673ffffffffffffffffffffffffffffffffffffffff16815260200190815260200160002060008373ffffffffffffffffffffffffffffffffffffffff1673ffffffffffffffffffffffffffffffffffffffff16815260200190815260200160002054905092915050565b600560009054906101000a900473ffffffffffffffffffffffffffffffffffffffff1681565b600033905090565b600073ffffffffffffffffffffffffffffffffffffffff168373ffffffffffffffffffffffffffffffffffffffff161415610a12576040517f08c379a0000000000000000000000000000000000000000000000000000000008152600401610a09906118e1565b60405180910390fd5b600073ffffffffffffffffffffffffffffffffffffffff168273ffffffffffffffffffffffffffffffffffffffff161415610a82576040517f08c379a0000000000000000000000000000000000000000000000000000000008152600401610a7990611841565b60405180910390fd5b80600160008573ffffffffffffffffffffffffffffffffffffffff1673ffffffffffffffffffffffffffffffffffffffff16815260200190815260200160002060008473ffffffffffffffffffffffffffffffffffffffff1673ffffffffffffffffffffffffffffffffffffffff168152602001908152602001600020819055508173ffffffffffffffffffffffffffffffffffffffff168373ffffffffffffffffffffffffffffffffffffffff167f8c5be1e5ebec7d5bd14f71427d1e84f3dd0314c0f7b2291e5b200ac8c7c3b92583604051610b609190611941565b60405180910390a3505050565b6000610b7984846108ed565b90507fffffffffffffffffffffffffffffffffffffffffffffffffffffffffffffffff8114610bf35781811015610be5576040517f08c379a0000000000000000000000000000000000000000000000000000000008152600401610bdc90611861565b60405180910390fd5b610bf284848484036109a2565b5b50505050565b600073ffffffffffffffffffffffffffffffffffffffff168373ffffffffffffffffffffffffffffffffffffffff161415610c69576040517f08c379a0000000000000000000000000000000000000000000000000000000008152600401610c60906118c1565b60405180910390fd5b600073ffffffffffffffffffffffffffffffffffffffff168273ffffffffffffffffffffffffffffffffffffffff161415610cd9576040517f08c379a0000000000000000000000000000000000000000000000000000000008152600401610cd0906117e1565b60405180910390fd5b610ce48383836111b1565b60008060008573ffffffffffffffffffffffffffffffffffffffff1673ffffffffffffffffffffffffffffffffffffffff16815260200190815260200160002054905081811015610d6a576040517f08c379a0000000000000000000000000000000000000000000000000000000008152600401610d6190611881565b60405180910390fd5b8181036000808673ffffffffffffffffffffffffffffffffffffffff1673ffffffffffffffffffffffffffffffffffffffff16815260200190815260200160002081905550816000808573ffffffffffffffffffffffffffffffffffffffff1673ffffffffffffffffffffffffffffffffffffffff1681526020019081526020016000206000828254610dfd9190611993565b925050819055508273ffffffffffffffffffffffffffffffffffffffff168473ffffffffffffffffffffffffffffffffffffffff167fddf252ad1be2c89b69c2b068fc378daa952ba7f163c4a11628f55a4df523b3ef84604051610e619190611941565b60405180910390a3610e748484846111b6565b50505050565b600073ffffffffffffffffffffffffffffffffffffffff168273ffffffffffffffffffffffffffffffffffffffff161415610eea576040517f08c379a0000000000000000000000000000000000000000000000000000000008152600401610ee190611921565b60405180910390fd5b610ef6600083836111b1565b8060026000828254610f089190611993565b92505081905550806000808473ffffffffffffffffffffffffffffffffffffffff1673ffffffffffffffffffffffffffffffffffffffff1681526020019081526020016000206000828254610f5d9190611993565b925050819055508173ffffffffffffffffffffffffffffffffffffffff16600073ffffffffffffffffffffffffffffffffffffffff167fddf252ad1be2c89b69c2b068fc378daa952ba7f163c4a11628f55a4df523b3ef83604051610fc29190611941565b60405180910390a3610fd6600083836111b6565b5050565b600073ffffffffffffffffffffffffffffffffffffffff168273ffffffffffffffffffffffffffffffffffffffff16141561104a576040517f08c379a0000000000000000000000000000000000000000000000000000000008152600401611041906118a1565b60405180910390fd5b611056826000836111b1565b60008060008473ffffffffffffffffffffffffffffffffffffffff1673ffffffffffffffffffffffffffffffffffffffff168152602001908152602001600020549050818110156110dc576040517f08c379a00000000000000000000000000000000000000000000000000000000081526004016110d390611821565b60405180910390fd5b8181036000808573ffffffffffffffffffffffffffffffffffffffff1673ffffffffffffffffffffffffffffffffffffffff16815260200190815260200160002081905550816002600082825461113391906119e9565b92505081905550600073ffffffffffffffffffffffffffffffffffffffff168373ffffffffffffffffffffffffffffffffffffffff167fddf252ad1be2c89b69c2b068fc378daa952ba7f163c4a11628f55a4df523b3ef846040516111989190611941565b60405180910390a36111ac836000846111b6565b505050565b505050565b505050565b6000813590506111ca81611b46565b92915050565b6000813590506111df81611b5d565b92915050565b6000602082840312156111f757600080fd5b6000611205848285016111bb565b91505092915050565b6000806040838503121561122157600080fd5b600061122f858286016111bb565b9250506020611240858286016111bb565b9150509250929050565b60008060006060848603121561125f57600080fd5b600061126d868287016111bb565b935050602061127e868287016111bb565b925050604061128f868287016111d0565b9150509250925092565b600080604083850312156112ac57600080fd5b60006112ba858286016111bb565b92505060206112cb858286016111d0565b9150509250929050565b6000602082840312156112e757600080fd5b60006112f5848285016111d0565b91505092915050565b61130781611a1d565b82525050565b61131681611a2f565b82525050565b600061132782611977565b6113318185611982565b9350611341818560208601611a72565b61134a81611b35565b840191505092915050565b6000611362602383611982565b91507f45524332303a207472616e7366657220746f20746865207a65726f206164647260008301527f65737300000000000000000000000000000000000000000000000000000000006020830152604082019050919050565b60006113c8602883611982565b91507f6f6e6c792061646d696e20697320616c6c6f77656420746869732066756e637460008301527f696f6e616c6974790000000000000000000000000000000000000000000000006020830152604082019050919050565b600061142e602283611982565b91507f45524332303a206275726e20616d6f756e7420657863656564732062616c616e60008301527f63650000000000000000000000000000000000000000000000000000000000006020830152604082019050919050565b6000611494602283611982565b91507f45524332303a20617070726f766520746f20746865207a65726f20616464726560008301527f73730000000000000000000000000000000000000000000000000000000000006020830152604082019050919050565b60006114fa601d83611982565b91507f45524332303a20696e73756666696369656e7420616c6c6f77616e63650000006000830152602082019050919050565b600061153a602683611982565b91507f45524332303a207472616e7366657220616d6f756e742065786365656473206260008301527f616c616e636500000000000000000000000000000000000000000000000000006020830152604082019050919050565b60006115a0602183611982565b91507f45524332303a206275726e2066726f6d20746865207a65726f2061646472657360008301527f73000000000000000000000000000000000000000000000000000000000000006020830152604082019050919050565b6000611606602583611982565b91507f45524332303a207472616e736665722066726f6d20746865207a65726f20616460008301527f64726573730000000000000000000000000000000000000000000000000000006020830152604082019050919050565b600061166c602483611982565b91507f45524332303a20617070726f76652066726f6d20746865207a65726f2061646460008301527f72657373000000000000000000000000000000000000000000000000000000006020830152604082019050919050565b60006116d2602583611982565b91507f45524332303a2064656372656173656420616c6c6f77616e63652062656c6f7760008301527f207a65726f0000000000000000000000000000000000000000000000000000006020830152604082019050919050565b6000611738601f83611982565b91507f45524332303a206d696e7420746f20746865207a65726f2061646472657373006000830152602082019050919050565b61177481611a5b565b82525050565b61178381611a65565b82525050565b600060208201905061179e60008301846112fe565b92915050565b60006020820190506117b9600083018461130d565b92915050565b600060208201905081810360008301526117d9818461131c565b905092915050565b600060208201905081810360008301526117fa81611355565b9050919050565b6000602082019050818103600083015261181a816113bb565b9050919050565b6000602082019050818103600083015261183a81611421565b9050919050565b6000602082019050818103600083015261185a81611487565b9050919050565b6000602082019050818103600083015261187a816114ed565b9050919050565b6000602082019050818103600083015261189a8161152d565b9050919050565b600060208201905081810360008301526118ba81611593565b9050919050565b600060208201905081810360008301526118da816115f9565b9050919050565b600060208201905081810360008301526118fa8161165f565b9050919050565b6000602082019050818103600083015261191a816116c5565b9050919050565b6000602082019050818103600083015261193a8161172b565b9050919050565b6000602082019050611956600083018461176b565b92915050565b6000602082019050611971600083018461177a565b92915050565b600081519050919050565b600082825260208201905092915050565b600061199e82611a5b565b91506119a983611a5b565b9250827fffffffffffffffffffffffffffffffffffffffffffffffffffffffffffffffff038211156119de576119dd611ad7565b5b828201905092915050565b60006119f482611a5b565b91506119ff83611a5b565b925082821015611a1257611a11611ad7565b5b828203905092915050565b6000611a2882611a3b565b9050919050565b60008115159050919050565b600073ffffffffffffffffffffffffffffffffffffffff82169050919050565b6000819050919050565b600060ff82169050919050565b60005b83811015611a90578082015181840152602081019050611a75565b83811115611a9f576000848401525b50505050565b60006002820490506001821680611abd57607f821691505b60208210811415611ad157611ad0611b06565b5b50919050565b7f4e487b7100000000000000000000000000000000000000000000000000000000600052601160045260246000fd5b7f4e487b7100000000000000000000000000000000000000000000000000000000600052602260045260246000fd5b6000601f19601f8301169050919050565b611b4f81611a1d565b8114611b5a57600080fd5b50565b611b6681611a5b565b8114611b7157600080fd5b5056fea26469706673582212203a9a542c0df3896d66c51d74e19d73a86628b9d380261859699663fc97b5943064736f6c63430008000033",
  "immutableReferences": {},
  "source": "// SPDX-License-Identifier: MIT\npragma solidity ^0.8.0;\n\nimport \"@openzeppelin/contracts/token/ERC20/IERC20.sol\";\nimport \"./ntt54_ERC20.sol\";\nimport \"./ntt54_Oracle.sol\";\n\n\ncontract ntt54_DEX {\n\n    address public admin;\n    address public oracleAddress;\n    bytes32 public quoteTokenID;\n    uint public swapID;\n    uint public max_faucet_allowance;\n    \n\n    struct Token {\n        bytes32 tokenID;\n        bytes8 tokenTicker;\n        address tokenAddress;\n    }\n\n    struct Swap {\n        uint id;\n        bytes32 frmTkn;\n        bytes32 toTkn;\n        uint amount;\n        uint price;\n        uint date;\n    }\n\n    mapping(bytes32 => Token) public tokens;       //tokens[tokenID e.g. bitcoin} => {0x28398298729, \"BTC\", btcAdddress}\n    bytes32[] public tokenIDs;\n    mapping(address => uint) public faucetMinted;\n\n    event NewSwap(uint id, bytes32 frmTkn, bytes32 toTkn, uint amountIn, uint amountOut, uint price, uint timestamp);\n    event NewFaucetMint(address to, uint amount, uint timestamp);\n    event Received(address sender, uint amount);\n\n    modifier onlyAdmin() {\n        require(msg.sender==admin,\"only the administrator is allowed this functionality\");\n        _;\n    }\n\n    modifier oracleExists {\n        require(oracleAddress!=address(0),\"Oracle is not set up. No swaps will be permitted\");\n        _;\n    }\n\n    modifier tokenExists(bytes32 tokenID) {\n        require(tokens[tokenID].tokenAddress!= address(0), \"token ID does not exist\");\n        _;\n    }\n\n    \n    /**\n        @notice Pass the stable token id, ticker, initial supply. This stable token will be the quote currency\n        @param _quoteTokenID The id of the quote currency as a bytes32\n        @param _quoteTicker The ticker of the quote currency as a bytes8\n        @param _quoteInitialSupply The initial supply of the quote currency.\n        @param _oracleAddress The address of the oracle that will be used for price retrieval in swaps\n    */\n    constructor(bytes32 _quoteTokenID, bytes8 _quoteTicker, uint _quoteInitialSupply, address _oracleAddress, uint _max_faucet_allowance) {\n        admin = msg.sender; \n        oracleAddress = _oracleAddress;\n        max_faucet_allowance = _max_faucet_allowance * 1 ether;\n        ntt54_ERC20 stableCoin = new ntt54_ERC20(string(abi.encodePacked(_quoteTokenID)), string(abi.encodePacked(_quoteTicker)), _quoteInitialSupply * 1 ether);\n        quoteTokenID = _quoteTokenID;\n        addToken(_quoteTokenID, _quoteTicker, address(stableCoin));\n    }\n\n\n    /**\n        @notice only the admin account can call this function to pass ownership\n        @dev we can set new admin like a multisig admin. \n        @param newAdmin The new admin of the token\n    */\n    function changeAdmin(address newAdmin) external onlyAdmin {\n        admin = newAdmin;\n    }\n\n    \n    function addToken(bytes32 tID, bytes8 tTicker, address tAddress) public onlyAdmin {\n        tokens[tID] = Token({ tokenID: tID, tokenTicker: tTicker, tokenAddress: tAddress});\n        tokenIDs.push(tID);\n    }\n\n    function getAllTokenIDstrings() external view returns(string[] memory) {\n        string[] memory tokenIDstrings = new string[](tokenIDs.length);\n        for (uint i=0; i < tokenIDs.length; i++) {\n            tokenIDstrings[i] = string( abi.encodePacked(tokenIDs[i]) );\n        }\n        return tokenIDstrings;\n    }\n\n    function getAllTokenIDs() external view returns(bytes32[] memory) {\n        return tokenIDs;\n    }\n\n    function getAllTokens() external view returns(Token[] memory) {\n        Token[] memory tokensStructs = new Token[](tokenIDs.length);\n        for (uint i=0; i < tokenIDs.length; i++) {\n            tokensStructs[i] = tokens[ tokenIDs[i] ];      \n        }\n        return tokensStructs;\n    }\n\n\n    function faucetStable (uint _amount) external tokenExists(quoteTokenID) {\n        uint amountWEI = _amount *  1 ether;\n        require( faucetMinted[msg.sender] < max_faucet_allowance && amountWEI <=max_faucet_allowance ,\"account has minted maximum permitted stable\");\n        uint leftTomint = max_faucet_allowance - faucetMinted[msg.sender] ;\n        uint amountToMint =  leftTomint > amountWEI ? amountWEI : leftTomint;\n        faucetMinted[msg.sender] +=amountToMint;\n        ntt54_ERC20 stable = ntt54_ERC20( tokens[quoteTokenID].tokenAddress );\n       \n        stable.transfer(msg.sender, amountToMint);\n\n        emit NewFaucetMint(msg.sender, amountToMint, block.timestamp);\n    }\n\n\n\n    function transferLiquidity(address from, bytes32[] calldata tID, bytes8[] calldata tTicker, address[] calldata tAddress, uint[] calldata tSupply) external {\n        for (uint i=0; i< tID.length; i++) {\n            IERC20 newToken = IERC20( tAddress[i] );\n            newToken.transferFrom(from, address(this), tSupply[i]);\n            addToken(tID[i], tTicker[i], tAddress[i]); \n        }\n    }\n    \n    \n    function getTokenStablePrice(bytes32 toToken) public view returns(uint) {\n        ntt54_Oracle oracle = ntt54_Oracle(oracleAddress);\n        (  ,  , , uint last_price, ,) = oracle.getData(toToken); \n        return last_price;\n    }\n\n\n \n    function swapStableForToken(bytes32 toToken, uint amount) public tokenExists(toToken) returns(uint) {\n        IERC20 fromTkn = IERC20( tokens[quoteTokenID].tokenAddress );\n        fromTkn.transferFrom(msg.sender, address(this), amount);   //msg.sender needs to have approved first fromTkn.approve(address(this), amount)\n        IERC20 toTkn = IERC20(tokens[toToken].tokenAddress);\n\n        uint price = getTokenStablePrice(toToken);\n        require(price>0,\"TokenStable price is 0.Token does not exist\");\n         \n        uint amountOut = (amount * 1 ether ) / price ;\n        toTkn.transfer(msg.sender, amountOut);\n\n        swapID++;\n        emit NewSwap(swapID, quoteTokenID, toToken,  amount, amountOut,  price,  block.timestamp);\n\n        return amountOut;\n    } \n\n\n    function swapTokenForStable(bytes32 fromToken, uint amount) public tokenExists(fromToken) returns(uint) {\n        IERC20 fromTkn = IERC20( tokens[fromToken].tokenAddress );    \n        fromTkn.transferFrom(msg.sender, address(this), amount);  //msg.sender needs to have approved first fromTkn.approve(address(this), amount)\n        IERC20 toTkn = IERC20(tokens[quoteTokenID].tokenAddress);\n\n        uint price = getTokenStablePrice(fromToken);\n        require(price>0,\"TokenStable price is 0.Token does not exist\");\n         \n        uint amountOut = (amount * price) / 1 ether ;\n        toTkn.transfer(msg.sender, amountOut);\n\n        swapID++;\n        emit NewSwap(swapID, fromToken, quoteTokenID,  amount, amountOut,  price,  block.timestamp);\n        return amountOut;\n    } \n\n    \n\n    function getContractBalance() public view returns (uint256) {\n        return address(this).balance;\n    }\n\n    function withdrawContractBalance() public onlyAdmin {\n        payable(msg.sender).transfer(address(this).balance);\n    }\n\n    receive() external payable {\n        emit Received(msg.sender, msg.value);\n    }\n\n}",
  "sourcePath": "/Users/angelos-imac/Dropbox/Cryptos/Darwinia/Client_FrontEnd/ntt54_DEX_truffle/contracts/ntt54_DEX.sol",
  "compiler": {
    "name": "solc",
    "version": "0.8.0+commit.c7dfd78e.Emscripten.clang"
  },
  "schemaVersion": "3.4.5",
  "updatedAt": "2022-02-28T05:11:12.977Z",
  "networkType": "ethereum",
  "devdoc": {
    "kind": "dev",
    "methods": {
      "changeAdmin(address)": {
        "details": "we can set new admin like a multisig admin. ",
        "params": {
          "newAdmin": "The new admin of the token"
        }
      },
      "constructor": {
        "params": {
          "_oracleAddress": "The address of the oracle that will be used for price retrieval in swaps",
          "_quoteInitialSupply": "The initial supply of the quote currency.",
          "_quoteTicker": "The ticker of the quote currency as a bytes8",
          "_quoteTokenID": "The id of the quote currency as a bytes32"
        }
      }
    },
    "version": 1
  },
  "userdoc": {
    "kind": "user",
    "methods": {
      "changeAdmin(address)": {
        "notice": "only the admin account can call this function to pass ownership"
      },
      "constructor": {
        "notice": "Pass the stable token id, ticker, initial supply. This stable token will be the quote currency"
      }
    },
    "version": 1
  }
}